S0100000506F6E6747616D652E7372656306
S11300000C94B2020C94CF020C94CF020C94CF0245
S11300100C94CF020C94CF020C94CF020C94CF0218
S11300200C94CF020C94CF020C94CF020C94CF0208
S11300300C94CF020C94CF020C94CF020C94CF02F8
S11300400C94CF020C94CF020C94CF020C94CF02E8
S11300500C94CF020C94CF020C94CF020C94CF02D8
S11300600C94CF020C94CF0200000000007CDAF262
S1130070DA7C7CD6F2D67C387C3E7C38183C7E3CDC
S11300801838EABEEA38387AFE7A3800183C180084
S1130090FFE7C3E7FF0018241800FFE7DBE7FF0CC6
S11300A0125C607064949E946402FEA0A0E002FE60
S11300B0A0A4FC5A3CE73C5AFE7C3838101038386F
S11300C07CFE2844FE4428FAFA00FAFA6090FE8086
S11300D0FE006691A95606060606062945FF45292F
S11300E010207E201008047E0408101054381010CC
S11300F038541010780808080830783078300C1C10
S11301007C1C0C60707C706000000000000000FA31
S1130110000000E000E00028FE28FE282454FE54DD
S113012048C4C81026466C926A040A0010E0C00055
S1130130003844820000824438005438FE38541099
S1130140107C101000010E0C001010101010000094
S113015006060004081020407C8A92A27C0042FE1D
S113016002004E92929262848292B2CC182848FE87
S113017008E4A2A2A29C3C5292928C82848890E0D1
S11301806C9292926C629292947800002800000023
S1130190022C0000001028448228282828280082E5
S11301A044281040809A90607C82BA9A723E4888B3
S11301B0483EFE9292926C7C82828244FE828282CB
S11301C07CFE92929282FE909090807C82828ACE73
S11301D0FE101010FE0082FE8200040282FC80FEEB
S11301E010284482FE02020202FE403840FEFE2035
S11301F01008FE7C8282827CFE909090607C828AD1
S1130200847AFE90989462649292924CC080FE80AC
S1130210C0FC020202FCF8040204F8FC021C02FC0A
S1130220C6281028C6C0201E20C0869A92B2C200DA
S1130230FE828282402010080400828282FE2040D6
S1130240804020020202020200C0E01000042A2AB8
S11302501E02FE1422221C1C222222141C222214FE
S1130260FE1C2A2A2A1800107E9040182525391EC3
S1130270FE1020201E0022BE0200040202BC00FE6A
S1130280081422000082FE02003E201E201E3E10A2
S113029020201E1C2222221C3F1824241818242447
S11302A0183F3E10202010122A2A2A242020FC2243
S11302B0243C0202043E38040204383C020C023C92
S11302C02214081422320909093E22262A32220065
S11302D0106C82000000EE000000826C1000408070
S11302E04020403C64C4643C78858586485C0202B6
S11302F0045E1C2A2AAA9A84AAAA9E82842A2A1EF6
S11303008284AA2A1E02042AAA9E0230784A4E48EF
S11303109CAAAAAA9A9C2A2A2A9A9CAA2A2A1A003D
S113032000A23E820040A2BE420080A23E020F9480
S113033024940F0F14A4140F3E2AAAA200042A2AFC
S11303403E2A3E5090FE924C9292924C4C121212C3
S11303504C4C5212120C5C8282845E5C4202041E7B
S113036000B90505BE9C2222229CBC020202BC3CB0
S113037024FF2424127E92C266D4F43FF4D4FF9066
S1130380946F0403117E90C0042A2A9E82000022E6
S1130390BE820C1212524C1C0202445E005E50508B
S11303A04EBEB0988CBE649494F414649494946493
S11303B00C12B202041C10101010101010101CF4B7
S11303C00813355DF408142C5F0000DE00001028CB
S11303D054284444285428105500AA005555AA55B9
S11303E0AA55AA55AA55AA000000FF00080808FF4C
S11303F000282828FF000808FF00FF08080F080F3E
S11304002828283F002828EF00FF0000FF00FF28CD
S1130410282F203F2828E808F80808F808F8282892
S113042028F8000808080F00000000F80808080869
S1130430F8080808080F08000000FF080808080862
S113044008080808FF08000000FF280000FF00FF5C
S11304500000F808E800003F202F2828E808E828D2
S1130460282F202F0000FF00EF28282828282828DC
S1130470EF00EF282828E8280808F808F828282892
S11304802F2808080F080F0000F808F8000000F8EB
S1130490280000003F2800000F080F0808FF08FF8D
S11304A0282828FF28080808F8000000000F08FF83
S11304B0FFFFFFFF0F0F0F0F0FFFFFFF00000000F4
S11304C000FFFFF0F0F0F0F01C22221C223E5454F6
S11304D07C287E40406060407E407E40C6AA928276
S11304E0C61C22223C20027E04780460407E4040E8
S11304F099A5E7A5993854925438324E804E320C5F
S113050052B2B20C0C121E120C3D465A62BC7C92C2
S11305109292007E8080807E54545454542222FA55
S11305202222028A5222020222528A020000FF8000
S1130530C00701FF00001010D6D6106C486C246C64
S113054060F090F060000018180000000808000C2B
S113055002FF808000F88080780098B8E848003C6A
S11305603C3C3C0011241FBECFEFD8E0DEBFCDBF22
S113057015E0A0E0B1E0EAE0FCE102C005900D92D4
S1130580A837B107D9F725E0A8E7B5E001C01D9267
S1130590A23AB207E1F70E94E9070C94030E0C9407
S11305A000005C9827E030E090E05D98AC01022EFA
S11305B002C0559547950A94E2F740FF02C05E9A3F
S11305C001C05E985D9A2150310978F70895569AD2
S11305D0559A549A539A529A5A985B982FE986E8F6
S11305E091E0215080409040E1F700C000005B9A08
S11305F083EA0E94D10280EA0E94D10280EC0E9428
S1130600D10280E40E94D1028CE20E94D10283EDE7
S113061090E30197F1F700C000008EE20E94D1023E
S113062083ED90E30197F1F700C000008FE20E9490
S1130630D10283EC99E00197F1F700C0000086E253
S11306400E94D10208955C9A27E030E090E05D9822
S1130650AC01022E02C0559547950A94E2F740FF7B
S113066002C05E9A01C05E985D9A2150310978F704
S11306700895CF93C82F81E80E94D1028C2F8F73E5
S11306800E94D102CF910895CF92DF92EF92FF9210
S11306900F931F93CF93DF930F2EF4E0EF2EF5E02B
S11306A0FF2EF02DEC010F2EF4E1CF2EF5E0DF2E1E
S11306B0F02DF7018081F2E0EF0EF11C806B0E94B7
S11306C0D10280E00E94D10280E10E94D10280EE3A
S11306D00E94D1028FEF0E9423038E0100581F4F06
S11306E089910E942303C017D107D1F7E801CE14E2
S11306F0DF04F9F6DF91CF911F910F91FF90EF90F6
S1130700DF90CF90089520E034E0FC01A90111921C
S113071041505040E1F7089530E0F901EE0FFF1F1A
S1130720EE0FFF1FE20FF31FE859FF4F55E0560F7E
S11307309C0170E8479F200D311D11249491D9012B
S1130740A60FB11D9C936F5F31966513F7CF089583
S1130750342F369536953695E62FF0E050E8359FE0
S1130760E00DF11D1124E80FF91F30E050E0409531
S113077050954770552702C0220F331F4A95E2F760
S11307808081282B208308952F923F924F925F926D
S11307906F927F928F929F92AF92BF92CF92DF928D
S11307A0EF92FF920F931F93CF93DF9300D01F928A
S11307B0CDB7DEB71C01E982822E912C862F90E002
S11307C09B838A83A42EB12C10E00A191B09B8015B
S11307D0012E000C880B990B0E94A5096B017C016A
S11307E0B4018A819B81681B790B072E000C880B4E
S11307F0990B0E94A5099B01AC01C701B6010E9497
S1130800FB080E946D099B01772324F422273327D8
S1130810261B370BB901330F880B990B0E94A509CE
S11308202B013C018A819B8188169906B4F111231E
S11308301CF49FEF8FEF02C091E080E0092F182F86
S1130840C12CD12C760129814A2D6A81C1010E94D3
S1130850A803A3019201C701B6010E948F086B018E
S11308607C0120E030E040E05FE30E94550A8823E9
S113087064F0A00EB11E20E030E040E85FE3C70161
S1130880B6010E948E086B017C018A819B810196CE
S11308909B838A8388169906B4F60F900F900F9065
S11308A0DF91CF911F910F91FF90EF90DF90CF9048
S11308B0BF90AF909F908F907F906F905F904F907C
S11308C03F902F900895CF92DF92EF92FF920F9373
S11308D01F93CF93DF936C01162FC42FD0E0E22E29
S11308E0F12CEC16FD0654F0202F4C2F612FC6017D
S11308F00E94A8032196EC16FD06B4F7DF91CF9170
S11309001F910F91FF90EF90DF90CF900895CF92B9
S1130910DF92EF92FF920F931F93CF93DF936C01BB
S1130920162FC42FD0E0E22EF12CEC16FD0654F065
S1130930202F412F6C2FC6010E94A8032196EC168C
S1130940FD06B4F7DF91CF911F910F91FF90EF90C7
S1130950DF90CF900895AF92BF92CF92DF92EF9243
S1130960FF920F931F93CF93DF93C42FD0E06E01B8
S1130970C00ED11C31E0C31AD108CC16DD0684F0B8
S1130980122FF62E5C011150160F0E2D212F4F2D14
S11309906C2FC5010E9487042196CC16DD06ACF7A6
S11309A0DF91CF911F910F91FF90EF90DF90CF9047
S11309B0BF90AF900895BF92CF92DF92EF92FF92D3
S11309C00F931F93CF93DF936C01F62ED42F122F26
S11309D0C42FC00F0E2D2C2F0E9463041F0D0C2F4B
S11309E0212F4C2F6F2DC6010E94C4030E2D2C2FD6
S11309F04D2F612FC6010E9463040D2F212F4D2F0F
S1130A006F2DC6010E94C403DF91CF911F910F91F6
S1130A10FF90EF90DF90CF90BF9008955F926F9218
S1130A207F928F929F92AF92BF92CF92DF92EF927A
S1130A30FF920F931F93CF93DF93C62ED12C5601B1
S1130A4032E0A31AB10832E0C30ED11CCA14DB048D
S1130A505CF1522E3C018501E42EF12C470182E029
S1130A60881A910832E0E30EF11CE814F904BCF092
S1130A70E401A016B10619F0C016D10631F48C16A3
S1130A809D0649F0EC16FD0631F0252D4C2F602F04
S1130A90C3010E94A8032196EC16FD0654F70F5FCC
S1130AA01F4FC016D1060CF7DF91CF911F910F9104
S1130AB0FF90EF90DF90CF90BF90AF909F908F907A
S1130AC07F906F905F9008951092C50087E68093A1
S1130AD0C40088E18093C1008EE08093C200089531
S1130AE0E0ECF0E0908195FFFDCF8093C60008957F
S1130AF0CF93DF93EC018881882331F021960E9403
S1130B00700589918111FBCFDF91CF910895ECE7B6
S1130B10F0E090819C7F90839081892B80838081F9
S1130B2080648083EAE7F0E08081866C8083808142
S1130B3086FDFDCF609178007091790080E090E0AF
S1130B400E94A309089518B817B887B1807F87B9A0
S1130B5083E090E00E9487050E946D09CB0108950F
S1130B6087B1856087B9409A429887B1857F87B9F4
S1130B7083E090E00E9487050E946D0970938505CB
S1130B806093840587B18A6087B9439A419887B195
S1130B908A7F87B980E090E00E9487050E946D09F2
S1130BA070938305609382050895EF920F93EE246A
S1130BB0E3940FE32FE740E060E084E091E00E94DB
S1130BC0DB0420917E05205D47E066E384E091E04C
S1130BD00E948C0320917C05205D47E063E484E05F
S1130BE091E00E948C03E0E3F5E0068124814281D8
S1130BF0608184E091E00E94AB04E6E2F5E00681C6
S1130C0024814281608184E091E00E94AB04809160
S1130C10400590914105181619064CF421E04091C5
S1130C20A00560919E0584E091E00E940E050F915D
S1130C30EF9008950E94090B0197092E000CAA0B4E
S1130C40BB0B0196A11DB11DAC01BD01440F551F85
S1130C50661F771FB6FF04C0415050486F4F7F4F47
S1130C60032E3FE075956795579547953A95D1F7CB
S1130C70302D9A01452B11F42FEF3FEFAC01BD014C
S1130C80440F551F661F771F840F951FA61FB71F9C
S1130C90AC01BD01BB2324F4415050486F4F7F4F3A
S1130CA0032E3FE075956795579547953A95D1F78B
S1130CB0302D440F551FFA01E65CFA4F40815181F3
S1130CC0249FC001259F900D349F900D1124909373
S1130CD02305809322059F938F9382E495E09F934D
S1130CE08F938AE895E09F938F930E94190B8AE86B
S1130CF095E00E9478050F900F900F900F900F9041
S1130D000F9008950F931F93CF93DF93ECE1F5E0D9
S1130D100081118126813781020F131F1183008303
S1130D20C281D38120853185C20FD31FD383C2836F
S1130D302091400530914105032E000C440B550BC6
S1130D400E945A0A660F771FFB01E256FA4F11837D
S1130D500083FB01E056FA4FD183C083C6E2D5E09D
S1130D6089858F9388858F938BE495E09F938F93E8
S1130D708AE895E09F938F930E94190B8AE895E087
S1130D800E947805E0E3F5E0228133818085918536
S1130D90280F391F338322834A815B818885998593
S1130DA0840F951F9B838A830F900F900F900F9051
S1130DB00F900F90121613063CF021E030E03093B0
S1130DC03305209332050FC06091360570913705C5
S1130DD04FE350E0461B570B4217530724F450933C
S1130DE0330540933205181619063CF081E090E073
S1130DF090932905809328050FC040912C055091AC
S1130E002D052FE330E0241B350B2817390724F474
S1130E103093290520932805DF91CF911F910F91DD
S1130E200895CF92DF92EF92FF920F931F93CF9387
S1130E30DF930E94B005C0901A05D0901B050D2CBD
S1130E40000CEE08FF082091840530918505C90146
S1130E50330FAA0BBB0B9C01AD012C193D094E09A4
S1130E605F09AFE7B0E00E94790A2091180530913C
S1130E7019058901330F220B330BA90198012C1991
S1130E803D094E095F090E945A0AC22FD32F2093AD
S1130E907A0530937B05C0901605D09017050D2C6C
S1130EA0000CEE08FF082091820530918305C901EA
S1130EB0330FAA0BBB0B9C01AD012C193D094E0944
S1130EC05F09A1ECBFEF0E94870A209114053091BD
S1130ED015058901330F220B330BA90198012C1935
S1130EE03D094E095F090E945A0ADA01C901CF96E9
S1130EF0A11DB11D9093790580937805DF93CF935D
S1130F0083E495E09F938F93CAE8D5E0DF93CF9372
S1130F100E94190BCE010E947805809179058F9368
S1130F20809178058F938AE595E09F938F93DF9363
S1130F30CF930E94190BCE010E9478058DB79EB7FE
S1130F400C960FB6F8949EBF0FBE8DBF80917A05A4
S1130F5090917B05CF97A4F48091780590917905C1
S1130F604F973CF48FEF9FEF9093390580933805AA
S1130F7027C081E090E0909339058093380520C024
S1130F8080917805909179054F973CF48FEF9FEF0E
S1130F9090932F0580932E0513C081E090E09093E9
S1130FA02F0580932E0585E0E2E6F5E0AAE8B5E09A
S1130FB001900D928A95E1F78AE895E00E94780500
S1130FC0DF91CF911F910F91FF90EF90DF90CF9021
S1130FD00895CF93DF93CDB7DEB760970FB6F8943B
S1130FE0DEBF0FBECDBF0E946405579A5F988BB1D8
S1130FF08BB984B1856084B985B18A7F85B985B19F
S113100085B90E94E7028FEA0E94D10288E10E941A
S1131010390384E091E00E9444032FEF81EE94E0D1
S1131020215080409040E1F700C0000084E091E04E
S11310300E94830384E091E00E944403EFEFF3ED08
S113104020E3E150F0402040E1F700C0000020E13F
S1131050E7E6F5E0CE010196DC0101900D922A95B8
S1131060E1F79F938F938AE895E09F938F930E9473
S1131070190B8AE895E00E9478050E941A060F90E1
S11310800F900F900F900F2EF0E3EF2EF5E0FF2E50
S1131090F02D06E215E00E94A3059093810580934C
S11310A08005181619061CF40E94110706C0F701E2
S11310B011861086F8011186108684E091E00E9462
S11310C083036091860570918705809188059091CE
S11310D089050E9482060E94D50584E091E00E9461
S11310E04403FFEF20E782E0F15020408040E1F725
S11310F000C000008091860590918705A091880525
S1131100B09189050196A11DB11D80938605909328
S11311108705A0938805B0938905BDCF5058BB2798
S1131120AA270E94A6080C941B0A0E940D0A38F0F4
S11311300E94140A20F039F49F3F19F426F40C9409
S11311400A0A0EF4E095E7FB0C94040AE92F0E94C6
S11311502C0A58F3BA17620773078407950720F01F
S113116079F4A6F50C944E0A0EF4E0950B2EBA2FE2
S1131170A02D0B01B90190010C01CA01A001112499
S1131180FF27591B99F0593F50F4503E68F11A1645
S1131190F040A22F232F342F4427585FF3CF4695D6
S11311A037952795A795F0405395C9F77EF41F16F8
S11311B0BA0B620B730B840BBAF09150A1F0FF0FC2
S11311C0BB1F661F771F881FC2F70EC0BA0F621FAE
S11311D0731F841F48F4879577956795B795F7959E
S11311E09E3F08F0B0CF9395880F08F09927EE0F33
S11311F09795879508950E940F090C941B0A0E94E5
S1131200140A58F00E940D0A40F029F45F3F29F0B7
S11312100C94040A51110C944F0A0C940A0A0E946B
S11312202C0A68F39923B1F3552391F3951B550BBD
S1131230BB27AA2762177307840738F09F5F5F4FA5
S1131240220F331F441FAA1FA9F335D00E2E3AF0E4
S1131250E0E832D091505040E695001CCAF72BD0FC
S1131260FE2F29D0660F771F881FBB1F261737074D
S11312704807AB07B0E809F0BB0B802DBF01FF277F
S113128093585F4F3AF09E3F510578F00C94040A4E
S11312900C944F0A5F3FE4F3983ED4F38695779518
S11312A06795B795F7959F5FC9F7880F911D969538
S11312B0879597F90895E1E0660F771F881FBB1F94
S11312C0621773078407BA0720F0621B730B840B41
S11312D0BA0BEE1F88F7E09508950E94740968948C
S11312E0B1110C944F0A08950E94340A88F09F5754
S11312F098F0B92F9927B751B0F0E1F0660F771F36
S1131300881F991F1AF0BA95C9F714C0B13091F02B
S11313100E944E0AB1E008950C944E0A672F782F6C
S11313208827B85F39F0B93FCCF3869577956795F0
S1131330B395D9F73EF490958095709561957F4F5C
S11313408F4F9F4F0895E89409C097FB3EF4909502
S11313508095709561957F4F8F4F9F4F9923A9F08A
S1131360F92F96E9BB279395F69587957795679519
S1131370B795F111F8CFFAF4BB0F11F460FF1BC05D
S11313806F5F7F4F8F4F9F4F16C0882311F096E9F0
S113139011C0772321F09EE8872F762F05C066239E
S11313A071F096E8862F70E060E02AF09A95660F57
S11313B0771F881FDAF7880F9695879597F9089510
S11313C0990F0008550FAA0BE0E8FEEF1616170652
S11313D0E807F907C0F012161306E407F50798F0BA
S11313E0621B730B840B950B39F40A2661F0232BD3
S11313F0242B252B21F408950A2609F4A140A6954F
S11314008FEF811D811D089597F99F6780E870E033
S113141060E008959FEF80EC089500240A94161666
S1131420170618060906089500240A9412161306CE
S1131430140605060895092E0394000C11F488235C
S113144052F0BB0F40F4BF2B11F460FF04C06F5F78
S11314507F4F8F4F9F4F089557FD9058440F551F4E
S113146059F05F3F71F04795880F97FB991F61F022
S11314709F3F79F087950895121613061406551F99
S1131480F2CF4695F1DF08C0161617061806991F05
S1131490F1CF86957105610508940895E894BB27FA
S11314A066277727CB0197F908950E94E00908F48D
S11314B08FEF0895052E97FB1EF400940E94710A85
S11314C057FD07D00E948C0A07FC03D04EF40C94FD
S11314D0710A50954095309521953F4F4F4F5F4F7E
S11314E0089590958095709561957F4F8F4F9F4F8C
S11314F008950E94AE0AA59F900DB49F900DA49FDD
S1131500800D911D11240895B7FF0C94790A0E944F
S1131510790A821B930B0895A1E21A2EAA1BBB1B06
S1131520FD010DC0AA1FBB1FEE1FFF1FA217B307AB
S1131530E407F50720F0A21BB30BE40BF50B661FC1
S1131540771F881F991F1A9469F760957095809585
S113155090959B01AC01BD01CF010895A29FB001FC
S1131560B39FC001A39F700D811D1124911DB29FD3
S1131570700D811D1124911D08958F929F92AF9239
S1131580BF92CF92DF92EF92FF92CF93DF93EC0161
S1131590688179818A819B81611571058105910535
S11315A021F464E279ED8BE597E02DE133EF41E03E
S11315B050E00E945A0A49015A019B01AC01A7EA72
S11315C0B1E40E94790A6B017C01ACEEB4EFA50191
S11315D094010E94870ADC01CB018C0D9D1DAE1D78
S11315E0BF1DB7FF03C00197A109B0488883998341
S11315F0AA83BB839F77DF91CF91FF90EF90DF9019
S1131600CF90BF90AF909F908F9008950E94BD0A95
S1131610089580E091E00E94BD0A0895A0E0B0E042
S11316208093000190930101A0930201B093030100
S11316300895AEE0B0E0EFE1FBE00C94DA0D0D8923
S11316401E8986E08C831A8309838FEF9FE79E832C
S11316508D83AE01475E5F4F6F89788DCE01019611
S11316600E943B0BEF81F885E00FF11F10822E964C
S1131670E4E00C94F60DABE0B0E0E1E4FBE00C94A4
S1131680CC0D6C017B018A01FC01178216828381D7
S113169081FFCCC1CE0101963C01F6019381F70193
S11316A093FD859193FF81917F01882309F4BAC149
S11316B0853239F493FD859193FF81917F018532C1
S11316C029F4B60190E00E94320DE7CF912C212C31
S11316D0312CFFE1F315D8F08B3279F038F48032F5
S11316E079F08332A1F4232D20611DC08D3261F085
S11316F0803369F4232D216016C0832D8260382E37
S1131700E32DE4603E2E2AC0F32DF8601DC037FCA3
S11317102DC020ED280F2A3040F08E32B9F436FC6B
S113172081C1232D2064322E19C036FE06C08AE002
S1131730989E200D1124922E11C0EAE02E9E200DB9
S11317401124222EF32DF0623F2E08C08C3621F492
S1131750832D8068382E02C0883641F4F70193FD4A
S1131760859193FF81917F018111B3CF982F9F7D44
S11317709554933028F40C5F1F4F9FE399830DC059
S1131780833631F0833771F0833509F059C021C0B5
S1131790F801808189830E5F1F4F88248394912CE4
S11317A0530113C02801F2E04F0E511CF801A08030
S11317B0B18036FE03C0692D70E002C06FEF7FEF89
S11317C0C5010E94270D4C018201F32DFF773F2EA6
S11317D016C0280122E0420E511CF801A080B180FD
S11317E036FE03C0692D70E002C06FEF7FEFC501C4
S11317F00E941C0D4C01F32DF0683F2E820133FC36
S11318001BC0822D90E088169906B0F4B60180E2E0
S113181090E00E94320D2A94F4CFF50137FC8591B3
S113182037FE81915F01B60190E00E94320D2110D4
S11318302A9421E0821A91088114910471F7E8C076
S1131840843611F0893641F5F80137FE07C060810E
S11318507181828193810C5F1F4F08C06081718107
S1131860072E000C880B990B0E5F1F4FF32DFF768C
S11318703F2E97FF09C090958095709561957F4F95
S11318808F4F9F4FF0683F2E2AE030E0A3010E9463
S11318906E0D882E861845C0853731F4232D2F7E92
S11318A0B22E2AE030E025C0932D997FB92E8F36D1
S11318B0C1F018F4883579F0B5C0803719F088374D
S11318C021F0B0C0E92FE061BE2EB4FE0DC0FB2DA7
S11318D0F460BF2E09C034FE0AC0292F2660B22E40
S11318E006C028E030E005C020E130E002C020E17D
S11318F032E0F801B7FE07C0608171818281938173
S11319000C5F1F4F06C06081718180E090E00E5F24
S11319101F4FA3010E946E0D882E8618FB2DFF77A2
S11319203F2E36FE0DC0232D2E7FA22E891458F48F
S113193034FE0BC032FC09C0832D8E7EA82E05C058
S1131940B82CA32C03C0B82C01C0B92CA4FE0FC022
S1131950FE01E80DF11D8081803321F49A2D997EDA
S1131960A92E09C0A2FE06C0B394B39404C08A2D64
S1131970867809F0B394A3FC11C0A0FE06C0B2148B
S113198088F4280C922C9B180EC0B21460F4B60193
S113199080E290E00E94320DB394F7CFB21418F4B1
S11319A02B1802C0982C212CA4FE10C0B60180E391
S11319B090E00E94320DA2FE17C0A1FC03C088E78C
S11319C090E002C088E590E0B6010CC08A2D8678CC
S11319D059F0A1FE02C08BE201C080E2A7FC8DE2B7
S11319E0B60190E00E94320D891438F4B60180E308
S11319F090E00E94320D9A94F7CF8A94F301E80D97
S1131A00F11D8081B60190E00E94320D8110F5CF66
S1131A10222009F442CEB60180E290E00E94320D09
S1131A202A94F6CFF6018681978102C08FEF9FEF4B
S1131A302B96E2E10C94E80DFC0105906150704096
S1131A400110D8F7809590958E0F9F1F0895FC0183
S1131A506150704001900110D8F7809590958E0FD9
S1131A609F1F08950F931F93CF93DF93FB0123814F
S1131A7021FD03C08FEF9FEF2CC022FF16C04681CB
S1131A805781248135814217530744F4A081B181E1
S1131A909D012F5F3F4F318320838C9326813781B3
S1131AA02F5F3F4F3783268314C08B01EC01FB016A
S1131AB00084F185E02D0995892BE1F6D80116966D
S1131AC08D919C911797019617969C938E931697D8
S1131AD0CE01DF91CF911F910F910895FA01AA27AA
S1131AE0283051F1203181F1E8946F936E7F6E5F5D
S1131AF07F4F8F4F9F4FAF4FB1E03ED0B4E03CD00B
S1131B00670F781F891F9A1FA11D680F791F8A1FED
S1131B10911DA11D6A0F711D811D911DA11D20D054
S1131B2009F468943F912AE0269F11243019305D0E
S1131B303193DEF6CF010895462F4770405D4193FF
S1131B40B3E00FD0C9F7F6CF462F4F70405D4A334C
S1131B5018F0495D31FD4052419302D0A9F7EACF14
S1131B60B4E0A6959795879577956795BA95C9F743
S1131B7000976105710508959B01AC010A2E069436
S1131B805795479537952795BA95C9F7620F731FEF
S1131B90841F951FA01D08952F923F924F925F922C
S1131BA06F927F928F929F92AF92BF92CF92DF9269
S1131BB0EF92FF920F931F93CF93DF93CDB7DEB7CE
S1131BC0CA1BDB0B0FB6F894DEBF0FBECDBF099462
S1131BD02A88398848885F846E847D848C849B84B9
S1131BE0AA84B984C884DF80EE80FD800C811B81C7
S1131BF0AA81B981CE0FD11D0FB6F894DEBF0FBEF6
S10D1C00CDBFED010895F894FFCF65
S1131C0A010000007F7F7F7F717F717F7F7F7F7FED
S1131C1A7E7F7A7B7F7F7F7F7F7F7F7F7F717F7FDE
S1131C2A717F7F7F0000606060787F7F7F7F7F6045
S1131C3A6060606060707078783E3F1F1F0F070114
S1131C4A0000000000000000000000000000000086
S1131C5A0000000000000000000000000000000076
S1131C6A0000000000000000000000000000000066
S1131C7A0000000000000000000000000000000056
S1131C8A00000000FFFFF0F0F0F0F0F0F0F0F0F0E8
S1131C9AF1F3F7FFFFFFF7F1F0F0F0F0F0F0F0F0F6
S1131CAAF0F0F0FF000000000000FFFFFFFFFF005C
S1131CBA0000000000000000000083FFFFFFFFFF98
S1131CCA3C000101030303030303010100000000B4
S1131CDA01010101030303030300000101030303D8
S1131CEA03030301000000000000010101030303D0
S1131CFA03030000000101030303030301010000BD
S1131D0A00000000E0FF03000103070F1E3E7FFFEF
S1131D1AFFFF9F0F0F8FFFFFFF7F3E1E0F07030179
S1131D2A00013FFC000000000000FFFFFFFFFF1C52
S1131D3A1C1C1C1C1C1C1C3C78F8F8F8F1EFDFFF77
S1131D4A7FFFE1C18181818181C1E1F9FFFF7F1FA9
S1131D5A878080C0FFFFFFFFFF78F0E0C0C0C0C0EB
S1131D6AC0E0FFFFFFFF3F070000808080FFFFFF06
S1131D7AFFFF3C78F0E0C0C0C0C0E0F0FFFFFF7F87
S1131D8A1F0000000080E0F8FCFFFF3F1F1E3CF824
S1131D9AF0E0C08000C0E0F0F83C1E1F3FFFFFFCEB
S1131DAAF8E08000000000000000FFFFFFFFFF00D2
S1131DBA000000000000000000000000FEFFFFFF1A
S1131DCAFFBF818080808080808080808080808046
S1131DDA80000000FFFFFFFFFF000000000000007A
S1131DEA0000FFFFFFFFFFFF0000000000FFFFFFEE
S1131DFAFFFF00000000000000000000FFFFFFFFDB
S1131E0AFF00000000000000000080C0E0703018ED
S1131E1A0C0C0606060C0C18183060E0C080000092
S1131E2A000000000000060E0E3EFEFEFEFEFE7ED0
S1131E3A0E0E060000000000000000000080E0F022
S1131E4AF8FCFC7E3E1E0E0E0E060E0E0E1C387894
S1131E5AE6060E1EFEFEFEFEFE0E0E06000000063E
S1131E6A060EFEFEFEFEFEFE0E0E06060EFEFEFE2C
S1131E7AFEFE7E0E0E06000000060E0EFEFEFEFE9E
S1131E8AFE1E0E0600000000000000000000000014
S1131E9A0000000000000000000001010000000032
S1131EAA0000000000000000000000000000000123
S1131EBA0101000000000000010100000000000010
S1131ECA0000000000000000010101000000000001
S1131EDA00000101000000000000000000000000F2
S1131EEA00000000000000000000000000000000E4
S1131EFA00000000000000000000000000000000D4
S1131F0A000000000000FFFFCECECECE001F1F1F30
S1131F1A38381F1F1C383C1F0F00FFFF1C38381F9E
S1131F2A1F07071F1F3B3B1F1F07071F1F3838FFC9
S1131F3AFFFF000F1F38381CFFFF000F1F1F3B3B1A
S1131F4A1F1F070F1F1F3838FFFFFF00000000780C
S1131F5AFCFCCECFC7C3181F1F03031F1F181E1F65
S1131F6A3F3B1B0118FFFF1818000F1F3B3B3B1F89
S1131F7A0F001F1F1C383C1F1F18383F1F07001F64
S1131F8A3F3B3B190000F0F07070707000F0F0F005
S1131F9A0000F0F0000000F0F000F0F0F07070F0D3
S1131FAAE080C0E0F07030707000C0E0F07070E063
S1131FBAF0F000E0F0707070F0F000C0E0F0703003
S1131FCA707000C0E0F07070F0F0F0000000006083
S1131FDA70703070F0E00000EEFEFCE000007070FB
S1131FEA30F0F0E000E0F0707000E0F07030307033
S1131FFA6000F0F0000000F0F00000F0F0F0607013
S113200A30B0F0E0030002000100000007000600FF
S113201A05000400DF0296009100B6033F001F008A
S113202A0300010000007C001A0002000C000000FA
S113203A02001A0002000C00000001000200030062
S113204A010076783A202564200A00706C6179656B
S113205A72322E76202564200A00793A20256420DB
S113206A0A00666C61670048656C6C6F2C20776F98
S10B207A726C6421200A0000CD
S9030000FC
