:100000000C9434000C9451000C9451000C94510049
:100010000C9451000C9451000C9451000C9451001C
:100020000C9451000C9451000C9451000C9451000C
:100030000C9451000C9451000C9451000C945100FC
:100040000C9451000C9451000C9451000C945100EC
:100050000C9451000C9451000C9451000C945100DC
:100060000C9451000C94510011241FBECFEFD8E026
:10007000DEBFCDBF15E0A0E0B1E0E0E9F3E002C0F3
:1000800005900D92A031B107D9F725E0A0E1B5E0C8
:1000900001C01D92A031B207E1F70E947B010C94D0
:1000A000C6010C9400005C9827E030E090E05D9879
:1000B000AC01022E02C0559547950A94E2F740FF25
:1000C00002C05E9A01C05E985D9A2150310978F7AE
:1000D0000895569A559A549A539A529A5A985B98F8
:1000E0002FE986E891E0215080409040E1F700C080
:1000F00000005B9A83EA0E94530080EA0E9453004A
:1001000080EC0E94530080E40E9453008CE20E9425
:10011000530083ED90E30197F1F700C000008EE2F9
:100120000E94530083ED90E30197F1F700C00000B7
:100130008FE20E94530083EC99E00197F1F700C031
:10014000000086E20E94530008955C9A27E030E0A8
:1001500090E05D98AC01022E02C0559547950A9437
:10016000E2F740FF02C05E9A01C05E985D9A21509E
:10017000310978F70895CF93C82F81E80E94530082
:100180008C2F8F730E945300CF910895CF92DF92EE
:10019000EF92FF920F931F93CF93DF930F2EF0E018
:1001A000EF2EF5E0FF2EF02DEC010F2EF0E1CF2E1B
:1001B000F5E0DF2EF02DF7018081F2E0EF0EF11C6B
:1001C000806B0E94530080E00E94530080E10E94F7
:1001D000530080EE0E9453008FEF0E94A5008E0115
:1001E00000581F4F89910E94A500C017D107D1F771
:1001F000E801CE14DF04F9F6DF91CF911F910F9142
:10020000FF90EF90DF90CF90089520E034E0FC0164
:10021000A901119241505040E1F70895342F3695CD
:1002200036953695E62FF0E050E8359FE00DF11D4C
:1002300011243197E80FF91F30E050E040955095B8
:100240004770552702C0220F331F4A95E2F780817D
:10025000282B20830895CF92DF92EF92FF920F9385
:100260001F93CF93DF936C01162FC42FD0E0E22EA3
:10027000F12CEC16FD0654F0202F412F6C2FC601F7
:100280000E940E012196EC16FD06B4F7DF91CF9186
:100290001F910F91FF90EF90DF90CF900895AF9254
:1002A000BF92CF92DF92EF92FF920F931F93CF9363
:1002B000DF93C42FD0E06E01C00ED11CCC16DD063A
:1002C0007CF0F62E5C01162F120F0E2D212F4F2DD4
:1002D0006C2FC5010E942B012196CC16DD06ACF7D0
:1002E000DF91CF911F910F91FF90EF90DF90CF9012
:1002F000BF90AF900895579A5F988BB18BB984B136
:10030000856084B985B18A7F85B985B185B90E9438
:1003100069008FEA0E94530088E10E94BB0080E0E0
:1003200091E00E94C6002FEF3BE782E92150304068
:100330008040E1F700C0000080E091E00E940501EC
:1003400080E091E00E94C6009FEF2BE732E99150D8
:1003500020403040E1F700C00000EE24E39402E3C7
:1003600022E34AE061E080E091E00E944F0180E0FA
:1003700091E00E94C6008AEA96EE26E931E08150BB
:10038000904020403040D9F70000E7CFF894FFCFED
:100390007F7F7F7F717F717F7F7F7F7F7E7F7A7B93
:1003A0007F7F7F7F7F7F7F7F7F717F7F717F7F7F79
:1003B0000000606060787F7F7F7F7F60606060604A
:1003C00060707078783E3F1F1F0F0701000000002B
:1003D000000000000000000000000000000000001D
:1003E000000000000000000000000000000000000D
:1003F00000000000000000000000000000000000FD
:1004000000000000000000000000000000000000EC
:10041000FFFFF0F0F0F0F0F0F0F0F0F0F1F3F7FFA4
:10042000FFFFF7F1F0F0F0F0F0F0F0F0F0F0F0FF97
:10043000000000000000FFFFFFFFFF0000000000C1
:1004400000000000000083FFFFFFFFFF3C000101F0
:100450000303030303030101000000000101010184
:100460000303030303000001010303030303030168
:10047000000000000000010101030303030300006A
:100480000001010303030303010100000000000059
:10049000E0FF03000103070F1E3E7FFFFFFF9F0FDA
:1004A0000F8FFFFFFF7F3E1E0F07030100013FFC80
:1004B000000000000000FFFFFFFFFF1C1C1C1C1CB5
:1004C0001C1C1C3C78F8F8F8F1EFDFFF7FFFE1C15E
:1004D0008181818181C1E1F9FFFF7F1F878080C019
:1004E000FFFFFFFFFF78F0E0C0C0C0C0C0E0FFFF2B
:1004F000FFFF3F070000808080FFFFFFFFFF3C7889
:10050000F0E0C0C0C0C0E0F0FFFFFF7F1F000000B0
:100510000080E0F8FCFFFF3F1F1E3CF8F0E0C080C9
:1005200000C0E0F0F83C1E1F3FFFFFFCF8E0800039
:10053000000000000000FFFFFFFFFF0000000000C0
:100540000000000000000000FEFFFFFFFFBF8180F1
:10055000808080808080808080808080800000001B
:10056000FFFFFFFFFF000000000000000000FFFF92
:10057000FFFFFFFF0000000000FFFFFFFFFF000084
:100580000000000000000000FFFFFFFFFF00000070
:1005900000000000000080C0E07030180C0C06065F
:1005A000060C0C18183060E0C0800000000000004D
:1005B0000000060E0E3EFEFEFEFEFE7E0E0E060045
:1005C00000000000000000000080E0F0F8FCFC7E6D
:1005D0003E1E0E0E0E060E0E0E1C3878E6060E1E81
:1005E000FEFEFEFEFE0E0E0600000006060EFEFEDD
:1005F000FEFEFEFE0E0E06060EFEFEFEFEFE7E0E4B
:100600000E06000000060E0EFEFEFEFEFE1E0E068C
:1006100000000000000000000000000000000000DA
:1006200000000000000001010000000000000000C8
:1006300000000000000000000000000101010000B7
:1006400000000000010100000000000000000000A8
:100650000000000001010100000000000000010195
:10066000000000000000000000000000000000008A
:10067000000000000000000000000000000000007A
:10068000000000000000000000000000000000006A
:100690000000FFFFCECECECE001F1F1F38381F1F19
:1006A0001C383C1F0F00FFFF1C38381F1F07071F97
:1006B0001F3B3B1F1F07071F1F3838FFFFFF000F9F
:1006C0001F38381CFFFF000F1F1F3B3B1F1F070F6A
:1006D0001F1F3838FFFFFF0000000078FCFCCECF62
:1006E000C7C3181F1F03031F1F181E1F3F3B1B01FB
:1006F00018FFFF1818000F1F3B3B3B1F0F001F1F69
:100700001C383C1F1F18383F1F07001F3F3B3B1979
:100710000000F0F07070707000F0F0F00000F0F089
:10072000000000F0F000F0F0F07070F0E080C0E049
:10073000F07030707000C0E0F07070E0F0F000E039
:10074000F0707070F0F000C0E0F07030707000C0B9
:10075000E0F07070F0F0F000000000607070307039
:10076000F0E00000EEFEFCE00000707030F0F0E021
:1007700000E0F0707000E0F0703030706000F0F079
:10078000000000F0F00000F0F0F0607030B0F0E039
:10079000030002000100000007000600050004003D
:00000001FF
