S0100000506F6E6747616D652E7372656306
S11300000C94B2020C94CF020C94CF020C94CF0245
S11300100C94CF020C94CF020C94CF020C94CF0218
S11300200C94CF020C94CF020C94CF020C94D30600
S11300300C94CF020C94CF020C94CF020C94CF02F8
S11300400C94CF020C94CF020C94CF020C94CF02E8
S11300500C94CF020C94CF020C94CF020C94CF02D8
S11300600C94CF020C94CF0200000000007CDAF262
S1130070DA7C7CD6F2D67C387C3E7C38183C7E3CDC
S11300801838EABEEA38387AFE7A3800183C180084
S1130090FFE7C3E7FF0018241800FFE7DBE7FF0CC6
S11300A0125C607064949E946402FEA0A0E002FE60
S11300B0A0A4FC5A3CE73C5AFE7C3838101038386F
S11300C07CFE2844FE4428FAFA00FAFA6090FE8086
S11300D0FE006691A95606060606062945FF45292F
S11300E010207E201008047E0408101054381010CC
S11300F038541010780808080830783078300C1C10
S11301007C1C0C60707C706000000000000000FA31
S1130110000000E000E00028FE28FE282454FE54DD
S113012048C4C81026466C926A040A0010E0C00055
S1130130003844820000824438005438FE38541099
S1130140107C101000010E0C001010101010000094
S113015006060004081020407C8A92A27C0042FE1D
S113016002004E92929262848292B2CC182848FE87
S113017008E4A2A2A29C3C5292928C82848890E0D1
S11301806C9292926C629292947800002800000023
S1130190022C0000001028448228282828280082E5
S11301A044281040809A90607C82BA9A723E4888B3
S11301B0483EFE9292926C7C82828244FE828282CB
S11301C07CFE92929282FE909090807C82828ACE73
S11301D0FE101010FE0082FE8200040282FC80FEEB
S11301E010284482FE02020202FE403840FEFE2035
S11301F01008FE7C8282827CFE909090607C828AD1
S1130200847AFE90989462649292924CC080FE80AC
S1130210C0FC020202FCF8040204F8FC021C02FC0A
S1130220C6281028C6C0201E20C0869A92B2C200DA
S1130230FE828282402010080400828282FE2040D6
S1130240804020020202020200C0E01000042A2AB8
S11302501E02FE1422221C1C222222141C222214FE
S1130260FE1C2A2A2A1800107E9040182525391EC3
S1130270FE1020201E0022BE0200040202BC00FE6A
S1130280081422000082FE02003E201E201E3E10A2
S113029020201E1C2222221C3F1824241818242447
S11302A0183F3E10202010122A2A2A242020FC2243
S11302B0243C0202043E38040204383C020C023C92
S11302C02214081422320909093E22262A32220065
S11302D0106C82000000EE000000826C1000408070
S11302E04020403C64C4643C78858586485C0202B6
S11302F0045E1C2A2AAA9A84AAAA9E82842A2A1EF6
S11303008284AA2A1E02042AAA9E0230784A4E48EF
S11303109CAAAAAA9A9C2A2A2A9A9CAA2A2A1A003D
S113032000A23E820040A2BE420080A23E020F9480
S113033024940F0F14A4140F3E2AAAA200042A2AFC
S11303403E2A3E5090FE924C9292924C4C121212C3
S11303504C4C5212120C5C8282845E5C4202041E7B
S113036000B90505BE9C2222229CBC020202BC3CB0
S113037024FF2424127E92C266D4F43FF4D4FF9066
S1130380946F0403117E90C0042A2A9E82000022E6
S1130390BE820C1212524C1C0202445E005E50508B
S11303A04EBEB0988CBE649494F414649494946493
S11303B00C12B202041C10101010101010101CF4B7
S11303C00813355DF408142C5F0000DE00001028CB
S11303D054284444285428105500AA005555AA55B9
S11303E0AA55AA55AA55AA000000FF00080808FF4C
S11303F000282828FF000808FF00FF08080F080F3E
S11304002828283F002828EF00FF0000FF00FF28CD
S1130410282F203F2828E808F80808F808F8282892
S113042028F8000808080F00000000F80808080869
S1130430F8080808080F08000000FF080808080862
S113044008080808FF08000000FF280000FF00FF5C
S11304500000F808E800003F202F2828E808E828D2
S1130460282F202F0000FF00EF28282828282828DC
S1130470EF00EF282828E8280808F808F828282892
S11304802F2808080F080F0000F808F8000000F8EB
S1130490280000003F2800000F080F0808FF08FF8D
S11304A0282828FF28080808F8000000000F08FF83
S11304B0FFFFFFFF0F0F0F0F0FFFFFFF00000000F4
S11304C000FFFFF0F0F0F0F01C22221C223E5454F6
S11304D07C287E40406060407E407E40C6AA928276
S11304E0C61C22223C20027E04780460407E4040E8
S11304F099A5E7A5993854925438324E804E320C5F
S113050052B2B20C0C121E120C3D465A62BC7C92C2
S11305109292007E8080807E54545454542222FA55
S11305202222028A5222020222528A020000FF8000
S1130530C00701FF00001010D6D6106C486C246C64
S113054060F090F060000018180000000808000C2B
S113055002FF808000F88080780098B8E848003C6A
S11305603C3C3C0011241FBECFEFD8E0DEBFCDBF22
S113057015E0A0E0B1E0E6E6F0E202C005900D92DD
S1130580A03BB107D9F725E0A0EBB5E001C01D926F
S1130590A73EB207E1F70E94B1080C9431100C9405
S11305A000005C9827E030E090E05D98AC01022EFA
S11305B002C0559547950A94E2F740FF02C05E9A3F
S11305C001C05E985D9A2150310978F70895569AD2
S11305D0559A549A539A529A5A985B982FE986E8F6
S11305E091E0215080409040E1F700C000005B9A08
S11305F083EA0E94D10280EA0E94D10280EC0E9428
S1130600D10280E40E94D1028CE20E94D10283EDE7
S113061090E30197F1F700C000008EE20E94D1023E
S113062083ED90E30197F1F700C000008FE20E9490
S1130630D10283EC99E00197F1F700C0000086E253
S11306400E94D10208955C9A27E030E090E05D9822
S1130650AC01022E02C0559547950A94E2F740FF7B
S113066002C05E9A01C05E985D9A2150310978F704
S11306700895CF93C82F81E80E94D1028C2F8F73E5
S11306800E94D102CF910895CF92DF92EF92FF9210
S11306900F931F93CF93DF930F2EF4E0EF2EF5E02B
S11306A0FF2EF02DEC010F2EF4E1CF2EF5E0DF2E1E
S11306B0F02DF7018081F2E0EF0EF11C806B0E94B7
S11306C0D10280E00E94D10280E10E94D10280EE3A
S11306D00E94D1028FEF0E9423038E0100581F4F06
S11306E089910E942303C017D107D1F7E801CE14E2
S11306F0DF04F9F6DF91CF911F910F91FF90EF90F6
S1130700DF90CF90089520E034E0FC01A90111921C
S113071041505040E1F7089530E0F901EE0FFF1F1A
S1130720EE0FFF1FE20FF31FE859FF4F55E0560F7E
S11307309C0170E8479F200D311D11249491D9012B
S1130740A60FB11D9C936F5F31966513F7CF089583
S1130750342F369536953695E62FF0E050E8359FE0
S1130760E00DF11D1124E80FF91F30E050E0409531
S113077050954770552702C0220F331F4A95E2F760
S11307808081282B20830895CF92DF92EF92FF92ED
S11307900F931F93CF93DF930023A1F0502F890170
S11307A0D42F6C017901050F111DC62FF70121917A
S11307B07F014D2F6C2FC6010E948C03CB5FE01686
S11307C0F106A1F7DF91CF911F910F91FF90EF9068
S11307D0DF90CF9008952F923F924F925F926F9245
S11307E07F928F929F92AF92BF92CF92DF92EF92BD
S11307F0FF920F931F93CF93DF9300D01F92CDB737
S1130800DEB71C01E982822E912C862F90E09B8317
S11308108A83A42EB12C10E00A191B09B801012EF9
S1130820000C880B990B0E94AB0B6B017C01B4018B
S11308308A819B81681B790B072E000C880B990B0E
S11308400E94AB0B9B01AC01C701B6010E94010BD6
S11308500E94730B9B01772324F422273327261B42
S1130860370BB901330F880B990B0E94AB0B2B018B
S11308703C018A819B8188169906B4F111231CF4EA
S11308809FEF8FEF02C091E080E0092F182FC12C59
S1130890D12C760129814A2D6A81C1010E94A803C5
S11308A0A3019201C701B6010E94950A6B017C0164
S11308B020E030E040E05FE30E945B0C882364F0BA
S11308C0A00EB11E20E030E040E85FE3C701B601AE
S11308D00E94940A6B017C018A819B8101969B830F
S11308E08A8388169906B4F60F900F900F90DF91C3
S11308F0CF911F910F91FF90EF90DF90CF90BF9019
S1130900AF909F908F907F906F905F904F903F90AB
S11309102F900895CF92DF92EF92FF920F931F933F
S1130920CF93DF936C01162FC42FD0E0E22EF12C6D
S1130930EC16FD0654F0202F4C2F612FC6010E94A7
S1130940A8032196EC16FD06B4F7DF91CF911F9111
S11309500F91FF90EF90DF90CF900895CF92DF92A8
S1130960EF92FF920F931F93CF93DF936C01162F97
S1130970C42FD0E0E22EF12CEC16FD0654F0202F0B
S1130980412F6C2FC6010E94A8032196EC16FD0688
S1130990B4F7DF91CF911F910F91FF90EF90DF900B
S11309A0CF900895AF92BF92CF92DF92EF92FF92D1
S11309B00F931F93CF93DF93C42FD0E06E01C00E2B
S11309C0D11C31E0C31AD108CC16DD0684F0122FF5
S11309D0F62E5C011150160F0E2D212F4F2D6C2F6A
S11309E0C5010E94AE042196CC16DD06ACF7DF915A
S11309F0CF911F910F91FF90EF90DF90CF90BF9018
S1130A00AF900895BF92CF92DF92EF92FF920F932F
S1130A101F93CF93DF936C01F62ED42F122FC42F84
S1130A20C00F0E2D2C2F0E948A041F0D0C2F212F76
S1130A304C2F6F2DC6010E94EB030E2D2C2F4D2F32
S1130A40612FC6010E948A040D2F212F4D2F6F2D77
S1130A50C6010E94EB03DF91CF911F910F91FF908C
S1130A60EF90DF90CF90BF9008955F926F927F9246
S1130A708F929F92AF92BF92CF92DF92EF92FF92AA
S1130A800F931F93CF93DF93C62ED12C560132E0E0
S1130A90A31AB10832E0C30ED11CCA14DB045CF102
S1130AA0522E3C018501E42EF12C470182E0881A84
S1130AB0910832E0E30EF11CE814F904BCF0E401FF
S1130AC0A016B10619F0C016D10631F48C169D0695
S1130AD049F0EC16FD0631F0252D4C2F602FC30193
S1130AE00E94A8032196EC16FD0654F70F5F1F4FD2
S1130AF0C016D1060CF7DF91CF911F910F91FF9093
S1130B00EF90DF90CF90BF90AF909F908F907F90A9
S1130B106F905F9008951092C50087E68093C4009B
S1130B2088E18093C1008EE08093C2000895E0ECD8
S1130B30F0E0908195FFFDCF8093C6000895CF9398
S1130B40DF93EC018881882331F021960E94970578
S1130B5089918111FBCFDF91CF910895ECE7F0E00B
S1130B6090819C7F90839081892B80838081806495
S1130B708083EAE7F0E08081866C8083808186FD53
S1130B80FDCF609178007091790080E090E00E9440
S1130B90A90B089518B817B887B1807F87B983E087
S1130BA090E00E94AE050E94730BCB01089587B1BB
S1130BB0856087B9409A429887B1857F87B983E079
S1130BC090E00E94AE050E94730B7093BA05609387
S1130BD0B90587B18A6087B9439A419887B18A7FFA
S1130BE087B980E090E00E94AE050E94730B709379
S1130BF0B8056093B7050895CF92DF92EF920F93F3
S1130C00CF93DF93EE24E3940FE32FE740E060E01B
S1130C1084E091E00E9402050F2EF2E3CF2EF5E06E
S1130C20DF2EF02DF6012285205D47E066E384E0A7
S1130C3091E00E948C03C6E2D5E02A85205D47E05E
S1130C4063E484E091E00E948C03F6010681248130
S1130C504281608184E091E00E94D2040E812C8163
S1130C604A81688184E091E00E94D204ECE1F5E0DD
S1130C7021E04281608184E091E00E943505DF91AA
S1130C80CF910F91EF90DF90CF9008950E94370D90
S1130C9081709078992324F401978E6F9F6F019649
S1130CA0009711F48FEF9FEF40913E0550913F055F
S1130CB0849F9001859F300D949F300D11243093B3
S1130CC02305209322053F932F9386E495E09F9379
S1130CD08F938FEB95E09F938F930E94470D8FEB3B
S1130CE095E00E949F050F900F900F900F900F902A
S1130CF00F900895ECE1F5E02081318186819781A0
S1130D00820F931F91838083228133818085918513
S1130D10820F931F93838283E2E3F5E02281338180
S1130D2080859185280F391F33832283E6E2F5E01D
S1130D304281538180859185840F951F938382839B
S1130D40121613063CF021E030E030933505209371
S1130D5034050FC060913805709139054FE350E0B8
S1130D60461B570B4217530724F450933505409301
S1130D703405181619063CF081E090E0909329059B
S1130D8080932805089540912C0550912D052FE35B
S1130D9030E0241B350B2817390724F43093290538
S1130DA02093280508951F920F920FB60F921124D5
S1130DB02B980F900FBE0F901F901895239A80E4E4
S1130DC08093800081E08093810082E080936F00B3
S1130DD0789408952B9AE4E8F0E0118210828081DF
S1130DE09181805B9C43909389008093880008954F
S1130DF0CF93DF930E94370D63E070E00E94600C94
S1130E00EC010E94370D81709078992324F40197A6
S1130E108E6F9F6F0196009711F48FEF9FEFCC0FA9
S1130E20DD1FC25CDA4F28813981AC01429FC001C9
S1130E30439F900D529F900D1124DF91CF910895FF
S1130E40CF93DF93ECE1F5E040815181248135813A
S1130E508681978199231CF4919581959109019735
S1130E60BA01621B730B861797076CF081E08093BD
S1130E70B405E6E2F5E0828593850196938782873F
S1130E800E94EA0616C0240F351F4FE750E0BA014E
S1130E90621B730B8617970764F081E08093B40597
S1130EA0E2E3F5E0828593850196938782870E9429
S1130EB0EA06ECE1F5E0A281B38144815581208505
S1130EC03185C901332324F488279927821B930B86
S1130ED00197BD01641B750B615071098617970753
S1130EE054F031952195310930932505209324053B
S1130EF00E94EA0613C04A0F5B1F6FE370E0FB0118
S1130F00E41BF50B8E179F074CF0319521953109A1
S1130F1030932505209324050E94EA06ECE1F5E0D0
S1130F204081518184819581BA01681B790B20919C
S1130F303205309133052F5F3F4F6217730751F528
S1130F40A0911E05B0911F05E2E3F5E06281738173
S1130F5026813781260F371FA217B307DCF46A17DF
S1130F607B07C4F40E94EA060E94370DCCE1D5E069
S1130F7063E070E00E94600CFC01EE0FFF1FE25C76
S1130F80FA4F808191819F838E830E94F80699870E
S1130F90888737C0840F951F209126053091270537
S1130FA02F5F3F4F8217930761F540911E055091C3
S1130FB01F05E6E2F5E02281338186819781820F65
S1130FC0931F48175907ECF424173507D4F40E94EB
S1130FD0EA060E94370DCCE1D5E063E070E00E94A0
S1130FE0600CFC01EE0FFF1FE25CFA4F80819181DF
S1130FF09195819591099F838E830E94F806998724
S11310008887DF91CF9108958F929F92AF92BF927C
S1131010CF92DF92EF92FF920F931F930E94D70516
S1131020C0901A05D0901B050D2C000CEE08FF088B
S11310302091B9053091BA05C901330FAA0BBB0B36
S11310409C01AD012C193D094E095F09AFE7B0E0E1
S11310500E94930C20911805309119058901330FD2
S1131060220B330BA90198012C193D094E095F0984
S11310700E94740C69017A013093B3052093B20580
S11310808090160590901705092C000CAA08BB083F
S11310902091B7053091B805C901330FAA0BBB0BDA
S11310A09C01AD01281939094A095B09A1ECBFEF7C
S11310B00E94A10C20911405309115058901330F6C
S11310C0220B330BA9019801281939094A095B0934
S11310D00E94740CBA01A901415C5F4F6F4F7F4FAE
S11310E05093B1054093B0052FE3C216D1048CF49C
S11310F04F3151053CF48FEF9FEF90933B05809364
S11311003A0524C081E090E090933B0580933A0532
S11311101DC04F3151053CF48FEF9FEF90932F0585
S113112080932E0513C081E090E090932F05809367
S11311302E0585E0EFE4F5E0AFEBB5E001900D920C
S11311408A95E1F78FEB95E00E949F051F910F911F
S1131150FF90EF90DF90CF90BF90AF909F908F90D3
S11311600895CF93DF93CDB7DEB7CE54D1090FB630
S1131170F894DEBF0FBECDBF0E948B050E94DE0631
S1131180579A5F988BB18BB984B1856084B985B166
S11311908A7F85B985B185B90E94E7028FEA0E94EA
S11311A0D10288E10E94390384E091E00E94440363
S11311B02FEF83ED90E3215080409040E1F700C091
S11311C0000084E091E00E94830384E091E00E94A7
S11311D04403EFEFF3ED20E3E150F0402040E1F76A
S11311E000C000000F2EFCE1AF2EF5E0BF2EF02D65
S11311F00F2EFFE38F2E912CF02D0F2EFFE16F2E7B
S1131200712CF02D0F2EF2E3EF2EF5E0FF2EF02DD2
S11312100F2EF6E2CF2EF5E0DF2EF02D81E1E4E58E
S1131220F5E0DE01969601900D928A95E1F783E14F
S1131230E5E6F5E0DE01119601900D928A95E1F75D
S113124082E1E8E7F5E0DE01549601900D928A957B
S1131250E1F701E19E012A5D3F4F42E069E184E04C
S113126091E00E94C40303E19E012F5F3F4F44E0DD
S113127064E184E091E00E94C40302E19E012C5EDB
S11312803F4F46E066E184E091E00E94C4032EE310
S113129042E06AE084E091E00E948C0384E091E003
S11312A00E9444032498259800E010E08FEF92E513
S11312B0E7E081509040E040E1F700C0000083B1D6
S11312C08072582E1C9919C00F5F1F4F402F440F76
S11312D020E26AE084E091E00E948C03033011056F
S11312E011F400E010E0A8014F5F5F4F440F2EE3BC
S11312F06AE084E091E00E948C0384E091E00E9423
S113130044035110D3CFF5019182808273826282AB
S1131310118610860E9446068091B405811149C049
S11313200E94CA059093B6058093B5051816190650
S11313301CF40E94040806C0F70111861086F60109
S11313401186108684E091E00E9483036091BB05BE
S11313507091BC058091BD059091BE050E947A06EE
S11313600E9420070E94FC0584E091E00E9444034F
S1131370FFEF20E782E0F15020408040E1F700C019
S113138000008091BB059091BC05A091BD05B09172
S1131390BE050196A11DB11D8093BB059093BC05AC
S11313A0A093BD05B093BE058091B405882309F4CC
S11313B0B7CF9FEFE1EEF4E09150E040F040E1F769
S11313C000C000001092B405809144059091450539
S11313D0F70122853385281739073CF4F601228565
S11313E03385281739070CF48ECF2A98289A5F9AE8
S11313F0FFEF29E688E1F15020408040E1F700C08A
S113140000002A9A28985F9A9FEFE9E6F8E1915044
S1131410E040F040E1F700C000002A9A289A5F9863
S11314202FEF89E698E1215080409040E1F700C019
S113143000002A9828985F9884E091E00E94830332
S113144084E091E00E9444038AE0EAE8F5E0DE01EA
S1131450AB5BBF4F01900D928A95E1F70AE09E01C4
S11314602B5B3F4F43E068E284E091E00E94C403B9
S1131470F70122853385809144059091450528170D
S11314803907A1F48EE0E4E9F5E0DE01D796019096
S11314900D928A95E1F70EE09E01295C3F4F44E0EE
S11314A06EE184E091E00E94C40313C08EE0E2EA9E
S11314B0F5E0DE01D79601900D928A95E1F70EE0F2
S11314C09E01295C3F4F44E06EE184E091E00E947C
S11314D0C40384E091E00E944403FFEF24E38CE022
S11314E0F15020408040E1F700C0000084E091E02A
S11314F00E94830384E091E00E9444039FEFE3EDA4
S1131500F0E39150E040F040E1F700C00000F70143
S1131510138612868AE190E093838283F601138610
S11315201286938382837ACE5058BB27AA270E94BF
S1131530AC0A0C94210C0E94130C38F00E941A0C73
S113154020F039F49F3F19F426F40C94100C0EF497
S1131550E095E7FB0C940A0CE92F0E94320C58F337
S1131560BA17620773078407950720F079F4A6F584
S11315700C94540C0EF4E0950B2EBA2FA02D0B01F5
S1131580B90190010C01CA01A0011124FF27591BC4
S113159099F0593F50F4503E68F11A16F040A22FCA
S11315A0232F342F4427585FF3CF4695379527953B
S11315B0A795F0405395C9F77EF41F16BA0B620B3A
S11315C0730B840BBAF09150A1F0FF0FBB1F661F81
S11315D0771F881FC2F70EC0BA0F621F731F841FC4
S11315E048F4879577956795B795F7959E3F08F0EA
S11315F0B0CF9395880F08F09927EE0F97958795AC
S113160008950E94150B0C94210C0E941A0C58F09A
S11316100E94130C40F029F45F3F29F00C940A0C4B
S113162051110C94550C0C94100C0E94320C68F35C
S11316309923B1F3552391F3951B550BBB27AA2787
S113164062177307840738F09F5F5F4F220F331FC1
S1131650441FAA1FA9F335D00E2E3AF0E0E832D089
S113166091505040E695001CCAF72BD0FE2F29D08C
S1131670660F771F881FBB1F261737074807AB075E
S1131680B0E809F0BB0B802DBF01FF2793585F4FD3
S11316903AF09E3F510578F00C940A0C0C94550CCA
S11316A05F3FE4F3983ED4F3869577956795B795B5
S11316B0F7959F5FC9F7880F911D9695879597F9C0
S11316C00895E1E0660F771F881FBB1F6217730739
S11316D08407BA0720F0621B730B840BBA0BEE1F4E
S11316E088F7E09508950E947A0B6894B1110C94E0
S11316F0550C08950E943A0C88F09F5798F0B92F22
S11317009927B751B0F0E1F0660F771F881F991F32
S11317101AF0BA95C9F714C0B13091F00E94540C74
S1131720B1E008950C94540C672F782F8827B85F84
S113173039F0B93FCCF3869577956795B395D9F78A
S11317403EF490958095709561957F4F8F4F9F4F94
S11317500895E89409C097FB3EF4909580957095A0
S113176061957F4F8F4F9F4F9923A9F0F92F96E9E9
S1131770BB279395F695879577956795B795F1115E
S1131780F8CFFAF4BB0F11F460FF1BC06F5F7F4FFB
S11317908F4F9F4F16C0882311F096E911C077230D
S11317A021F09EE8872F762F05C0662371F096E816
S11317B0862F70E060E02AF09A95660F771F881FE5
S11317C0DAF7880F9695879597F90895990F000889
S11317D0550FAA0BE0E8FEEF16161706E807F907FF
S11317E0C0F012161306E407F50798F0621B730B9A
S11317F0840B950B39F40A2661F0232B242B252B1B
S113180021F408950A2609F4A140A6958FEF811DBD
S1131810811D089597F99F6780E870E060E008955E
S11318209FEF80EC089500240A94161617061806F4
S11318300906089500240A941216130614060506D0
S11318400895092E0394000C11F4882352F0BB0F61
S113185040F4BF2B11F460FF04C06F5F7F4F8F4FC4
S11318609F4F089557FD9058440F551F59F05F3FFF
S113187071F04795880F97FB991F61F09F3F79F0AE
S113188087950895121613061406551FF2CF469530
S1131890F1DF08C0161617061806991FF1CF8695B2
S11318A07105610508940895E894BB276627772796
S11318B0CB0197F908950E94E60B08F48FEF089581
S11318C097FB072E16F4009407D077FD09D00E94E9
S11318D0A60C07FC05D03EF4909581959F4F089582
S11318E0709561957F4F0895052E97FB1EF4009423
S11318F00E948B0C57FD07D00E94BA0C07FC03D042
S11319004EF40C948B0C50954095309521953F4F97
S11319104F4F5F4F089590958095709561957F4FD7
S11319208F4F9F4F08950E94DC0CA59F900DB49F8C
S1131930900DA49F800D911D11240895B7FF0C9460
S1131940930C0E94930C821B930B0895AA1BBB1B40
S113195051E107C0AA1FBB1FA617B70710F0A61BAB
S1131960B70B881F991F5A95A9F780959095BC01CC
S1131970CD010895A1E21A2EAA1BBB1BFD010DC0C7
S1131980AA1FBB1FEE1FFF1FA217B307E407F5072B
S113199020F0A21BB30BE40BF50B661F771F881F07
S11319A0991F1A9469F760957095809590959B019D
S11319B0AC01BD01CF010895A29FB001B39FC00146
S11319C0A39F700D811D1124911DB29F700D811D67
S11319D01124911D08958F929F92AF92BF92CF923E
S11319E0DF92EF92FF92CF93DF93EC0168817981CC
S11319F08A819B81611571058105910521F464E259
S1131A0079ED8BE597E02DE133EF41E050E00E9462
S1131A10740C49015A019B01AC01A7EAB1E40E948C
S1131A20930C6B017C01ACEEB4EFA50194010E9410
S1131A30A10CDC01CB018C0D9D1DAE1DBF1DB7FF9C
S1131A4003C00197A109B04888839983AA83BB8303
S1131A509F77DF91CF91FF90EF90DF90CF90BF9071
S1131A60AF909F908F9008950E94EB0C089580E0B2
S1131A7091E00E94EB0C0895A0E0B0E08093000197
S1131A8090930101A0930201B09303010895AEE085
S1131A90B0E0EDE4FDE00C9408100D891E8986E0A9
S1131AA08C831A8309838FEF9FE79E838D83AE0116
S1131AB0475E5F4F6F89788DCE0101960E94690D54
S1131AC0EF81F885E00FF11F10822E96E4E00C946C
S1131AD02410ABE0B0E0EFE6FDE00C94FA0F6C01EB
S1131AE07B018A01FC0117821682838181FFCCC1AC
S1131AF0CE0101963C01F6019381F70193FD859196
S1131B0093FF81917F01882309F4BAC1853239F4A6
S1131B1093FD859193FF81917F01853229F4B6016C
S1131B2090E00E94600FE7CF912C212C312CFFE133
S1131B30F315D8F08B3279F038F4803279F08332AF
S1131B40A1F4232D20611DC08D3261F0803369F42E
S1131B50232D216016C0832D8260382EE32DE4608E
S1131B603E2E2AC0F32DF8601DC037FC2DC020ED99
S1131B70280F2A3040F08E32B9F436FC81C1232D6F
S1131B802064322E19C036FE06C08AE0989E200DCD
S1131B901124922E11C0EAE02E9E200D1124222E33
S1131BA0F32DF0623F2E08C08C3621F4832D80681B
S1131BB0382E02C0883641F4F70193FD859193FFD6
S1131BC081917F018111B3CF982F9F7D95549330DC
S1131BD028F40C5F1F4F9FE399830DC0833631F0C7
S1131BE0833771F0833509F059C021C0F801808131
S1131BF089830E5F1F4F88248394912C530113C053
S1131C002801F2E04F0E511CF801A080B18036FE8D
S1131C1003C0692D70E002C06FEF7FEFC5010E9421
S1131C20550F4C018201F32DFF773F2E16C028017A
S1131C3022E0420E511CF801A080B18036FE03C0A0
S1131C40692D70E002C06FEF7FEFC5010E944A0F5B
S1131C504C01F32DF0683F2E820133FC1BC0822D12
S1131C6090E088169906B0F4B60180E290E00E94F4
S1131C70600F2A94F4CFF50137FC859137FE8191EA
S1131C805F01B60190E00E94600F21102A9421E0C8
S1131C90821A91088114910471F7E8C0843611F016
S1131CA0893641F5F80137FE07C060817181828170
S1131CB093810C5F1F4F08C060817181072E000C57
S1131CC0880B990B0E5F1F4FF32DFF763F2E97FF66
S1131CD009C090958095709561957F4F8F4F9F4F68
S1131CE0F0683F2E2AE030E0A3010E949C0F882E6A
S1131CF0861845C0853731F4232D2F7EB22E2AE075
S1131D0030E025C0932D997FB92E8F36C1F018F499
S1131D10883579F0B5C0803719F0883721F0B0C024
S1131D20E92FE061BE2EB4FE0DC0FB2DF460BF2E82
S1131D3009C034FE0AC0292F2660B22E06C028E04E
S1131D4030E005C020E130E002C020E132E0F801DB
S1131D50B7FE07C060817181828193810C5F1F4F40
S1131D6006C06081718180E090E00E5F1F4FA30187
S1131D700E949C0F882E8618FB2DFF773F2E36FE7F
S1131D800DC0232D2E7FA22E891458F434FE0BC0CF
S1131D9032FC09C0832D8E7EA82E05C0B82CA32C3E
S1131DA003C0B82C01C0B92CA4FE0FC0FE01E80D7D
S1131DB0F11D8081803321F49A2D997EA92E09C0CA
S1131DC0A2FE06C0B394B39404C08A2D867809F0A9
S1131DD0B394A3FC11C0A0FE06C0B21488F4280C6E
S1131DE0922C9B180EC0B21460F4B60180E290E00D
S1131DF00E94600FB394F7CFB21418F42B1802C0EA
S1131E00982C212CA4FE10C0B60180E390E00E941F
S1131E10600FA2FE17C0A1FC03C088E790E002C0D7
S1131E2088E590E0B6010CC08A2D867859F0A1FEB1
S1131E3002C08BE201C080E2A7FC8DE2B60190E013
S1131E400E94600F891438F4B60180E390E00E9488
S1131E50600F9A94F7CF8A94F301E80DF11D808105
S1131E60B60190E00E94600F8110F5CF222009F4A2
S1131E7042CEB60180E290E00E94600F2A94F6CF31
S1131E80F6018681978102C08FEF9FEF2B96E2E1E6
S1131E900C941610FC010590615070400110D8F7A5
S1131EA0809590958E0F9F1F0895FC01615070409E
S1131EB001900110D8F7809590958E0F9F1F08957B
S1131EC00F931F93CF93DF93FB01238121FD03C065
S1131ED08FEF9FEF2CC022FF16C0468157812481CB
S1131EE035814217530744F4A081B1819D012F5FCE
S1131EF03F4F318320838C93268137812F5F3F4F5F
S1131F003783268314C08B01EC01FB010084F18527
S1131F10E02D0995892BE1F6D80116968D919C91B7
S1131F201797019617969C938E931697CE01DF917F
S1131F30CF911F910F910895FA01AA27283051F1EA
S1131F40203181F1E8946F936E7F6E5F7F4F8F4FE6
S1131F509F4FAF4FB1E03ED0B4E03CD0670F781F45
S1131F60891F9A1FA11D680F791F8A1F911DA11D2A
S1131F706A0F711D811D911DA11D20D009F4689463
S1131F803F912AE0269F11243019305D3193DEF60B
S1131F90CF010895462F4770405D4193B3E00FD0C1
S1131FA0C9F7F6CF462F4F70405D4A3318F0495DAC
S1131FB031FD4052419302D0A9F7EACFB4E0A6958F
S1131FC09795879577956795BA95C9F700976105B1
S1131FD0710508959B01AC010A2E06945795479507
S1131FE037952795BA95C9F7620F731F841F951FFC
S1131FF0A01D08952F923F924F925F926F927F920D
S11320008F929F92AF92BF92CF92DF92EF92FF9204
S11320100F931F93CF93DF93CDB7DEB7CA1BDB0BB0
S11320200FB6F894DEBF0FBECDBF09942A88398855
S113203048885F846E847D848C849B84AA84B9845C
S1132040C884DF80EE80FD800C811B81AA81B98168
S1132050CE0FD11D0FB6F894DEBF0FBECDBFED017C
S10920600895F894FFCF7F
S1132066010000007F7F7F7F717F717F7F7F7F7F8D
S11320767E7F7A7B7F7F7F7F7F7F7F7F7F717F7F7E
S1132086717F7F7F0000606060787F7F7F7F7F60E5
S11320966060606060707078783E3F1F1F0F0701B4
S11320A60000000000000000000000000000000026
S11320B60000000000000000000000000000000016
S11320C60000000000000000000000000000000006
S11320D600000000000000000000000000000000F6
S11320E600000000FFFFF0F0F0F0F0F0F0F0F0F088
S11320F6F1F3F7FFFFFFF7F1F0F0F0F0F0F0F0F096
S1132106F0F0F0FF000000000000FFFFFFFFFF00FB
S11321160000000000000000000083FFFFFFFFFF37
S11321263C00010103030303030301010000000053
S11321360101010103030303030000010103030377
S1132146030303010000000000000101010303036F
S1132156030300000001010303030303010100005C
S113216600000000E0FF03000103070F1E3E7FFF8F
S1132176FFFF9F0F0F8FFFFFFF7F3E1E0F07030119
S113218600013FFC000000000000FFFFFFFFFF1CF2
S11321961C1C1C1C1C1C1C3C78F8F8F8F1EFDFFF17
S11321A67FFFE1C18181818181C1E1F9FFFF7F1F49
S11321B6878080C0FFFFFFFFFF78F0E0C0C0C0C08B
S11321C6C0E0FFFFFFFF3F070000808080FFFFFFA6
S11321D6FFFF3C78F0E0C0C0C0C0E0F0FFFFFF7F27
S11321E61F0000000080E0F8FCFFFF3F1F1E3CF8C4
S11321F6F0E0C08000C0E0F0F83C1E1F3FFFFFFC8B
S1132206F8E08000000000000000FFFFFFFFFF0071
S1132216000000000000000000000000FEFFFFFFB9
S1132226FFBF8180808080808080808080808080E5
S113223680000000FFFFFFFFFF0000000000000019
S11322460000FFFFFFFFFFFF0000000000FFFFFF8D
S1132256FFFF00000000000000000000FFFFFFFF7A
S1132266FF00000000000000000080C0E07030188D
S11322760C0C0606060C0C18183060E0C080000032
S1132286000000000000060E0E3EFEFEFEFEFE7E70
S11322960E0E060000000000000000000080E0F0C2
S11322A6F8FCFC7E3E1E0E0E0E060E0E0E1C387834
S11322B6E6060E1EFEFEFEFEFE0E0E0600000006DE
S11322C6060EFEFEFEFEFEFE0E0E06060EFEFEFECC
S11322D6FEFE7E0E0E06000000060E0EFEFEFEFE3E
S11322E6FE1E0E06000000000000000000000000B4
S11322F600000000000000000000010100000000D2
S113230600000000000000000000000000000001C2
S113231601010000000000000101000000000000AF
S113232600000000000000000101010000000000A0
S11323360000010100000000000000000000000091
S11323460000000000000000000000000000000083
S11323560000000000000000000000000000000073
S1132366000000000000FFFFCECECECE001F1F1FD0
S113237638381F1F1C383C1F0F00FFFF1C38381F3E
S11323861F07071F1F3B3B1F1F07071F1F3838FF69
S1132396FFFF000F1F38381CFFFF000F1F1F3B3BBA
S11323A61F1F070F1F1F3838FFFFFF0000000078AC
S11323B6FCFCCECFC7C3181F1F03031F1F181E1F05
S11323C63F3B1B0118FFFF1818000F1F3B3B3B1F29
S11323D60F001F1F1C383C1F1F18383F1F07001F04
S11323E63F3B3B190000F0F07070707000F0F0F0A5
S11323F60000F0F0000000F0F000F0F0F07070F073
S1132406E080C0E0F07030707000C0E0F07070E002
S1132416F0F000E0F0707070F0F000C0E0F07030A2
S1132426707000C0E0F07070F0F0F0000000006022
S113243670703070F0E00000EEFEFCE0000070709A
S113244630F0F0E000E0F0707000E0F070303070D2
S11324566000F0F0000000F0F00000F0F0F06070B2
S113246630B0F0E00300020001000000070006009F
S113247605000400DF0296009100B6033F001F002A
S11324860300010000007C001A0002000C0000009A
S1132496000002001A0002000C0000000000010007
S11324A602000300090076783A202564200A0066B3
S11324B66C616700504C4159455220562E20504CB1
S11324C64159455200504C4159455220562E2043FD
S11324D64F4D505554455200414343454C20562ECA
S11324E620434F4D50555445520047414D45204FCA
S11324F656455200504C4159455220312057494EB9
S11325065300504C4159455220322057494E5300EE
S9030000FC
