:100000000C9434000C9451000C9451000C94510049
:100010000C9451000C9451000C9451000C9451001C
:100020000C9451000C9451000C9451000C9451000C
:100030000C9451000C9451000C9451000C945100FC
:100040000C9451000C9451000C9451000C945100EC
:100050000C9451000C9451000C9451000C945100DC
:100060000C9451000C94510011241FBECFEFD8E026
:10007000DEBFCDBF15E0A0E0B1E0E8EAF7E002C0E6
:1000800005900D92A031B107D9F725E0A0E1B5E0C8
:1000900001C01D92A031B207E1F70E94C9010C9482
:1000A000D2030C9400005C9827E030E090E05D986B
:1000B000AC01022E02C0559547950A94E2F740FF25
:1000C00002C05E9A01C05E985D9A2150310978F7AE
:1000D0000895569A559A549A539A529A5A985B98F8
:1000E0002FE986E891E0215080409040E1F700C080
:1000F00000005B9A83EA0E94530080EA0E9453004A
:1001000080EC0E94530080E40E9453008CE20E9425
:10011000530083ED90E30197F1F700C000008EE2F9
:100120000E94530083ED90E30197F1F700C00000B7
:100130008FE20E94530083EC99E00197F1F700C031
:10014000000086E20E94530008955C9A27E030E0A8
:1001500090E05D98AC01022E02C0559547950A9437
:10016000E2F740FF02C05E9A01C05E985D9A21509E
:10017000310978F70895CF93C82F81E80E94530082
:100180008C2F8F730E945300CF910895CF92DF92EE
:10019000EF92FF920F931F93CF93DF930F2EF0E018
:1001A000EF2EF5E0FF2EF02DEC010F2EF0E1CF2E1B
:1001B000F5E0DF2EF02DF7018081F2E0EF0EF11C6B
:1001C000806B0E94530080E00E94530080E10E94F7
:1001D000530080EE0E9453008FEF0E94A5008E0115
:1001E00000581F4F89910E94A500C017D107D1F771
:1001F000E801CE14DF04F9F6DF91CF911F910F9142
:10020000FF90EF90DF90CF90089520E034E0FC0164
:10021000A901119241505040E1F70895342F3695CD
:100220003695369550E8359F800D911D1124FC01BF
:10023000E60FF11D319750E04095509547705527D6
:1002400001C0220F4A95EAF7208308952F923F922A
:100250004F925F926F927F928F929F92AF92BF92D6
:10026000CF92DF92EF92FF920F931F93CF93DF9382
:1002700000D01F92CDB7DEB74C01E982E22EF12CFF
:10028000862F90E09B838A83A42EB12CC02ED12C84
:10029000CA18DB08B6010D2C000C880B990B0E94C4
:1002A0001D032B013C01B7018A819B81681B790BDF
:1002B000072E000C880B990B0E941D039B01AC01BB
:1002C000C301B2010E9473020E94E5029B017723E1
:1002D00024F422273327261B370BB901330F880B51
:1002E000990B0E941D032B013C0187010F5F1F4FDB
:1002F0008A819B8180179107B4F5DD201CF49FEF64
:100300008FEF02C091E080E0292E382EC12CD12C35
:10031000760129814A2D6A81C4010E940E01A30140
:100320009201C701B6010E9407026B017C0120E027
:1003300030E040E05FE30E94A903882364F0A20C50
:10034000B31C20E030E040E85FE3C701B6010E9443
:1003500006026B017C018A819B8101969B838A83C3
:1003600080179107B4F20F900F900F90DF91CF910B
:100370001F910F91FF90EF90DF90CF90BF90AF90C3
:100380009F908F907F906F905F904F903F902F90B5
:100390000895579A5F988BB18BB984B1856084B901
:1003A00085B18A7F85B985B185B90E9469008FEAD8
:1003B0000E94530088E10E94BB0080E091E00E940F
:1003C000C6002FEF83ED90E3215080409040E1F78D
:1003D00000C0000080E091E00E940501EE24E3945B
:1003E00000E220E441E061E080E091E00E9426012B
:1003F00080E091E00E94C6002FEF83ED90E3215052
:1004000080409040E1F700C00000E8CF5058BB2783
:10041000AA270E941E020C946F030E94610338F009
:100420000E94680320F039F49F3F19F426F40C94DD
:100430005E030EF4E095E7FB0C945803E92F0E944D
:10044000800358F3BA17620773078407950720F0F3
:1004500079F4A6F50C94A2030EF4E0950B2EBA2FB6
:10046000A02D0B01B90190010C01CA01A0011124BA
:10047000FF27591B99F0593F50F4503E68F11A1666
:10048000F040A22F232F342F4427585FF3CF4695F7
:1004900037952795A795F0405395C9F77EF41F1619
:1004A000BA0B620B730B840BBAF09150A1F0FF0FE3
:1004B000BB1F661F771F881FC2F70EC0BA0F621FCF
:1004C000731F841F48F4879577956795B795F795BF
:1004D0009E3F08F0B0CF9395880F08F09927EE0F54
:1004E0009795879508950E9487020C946F030E9448
:1004F000680358F00E94610340F029F45F3F29F03F
:100500000C94580351110C94A3030C945E030E94A5
:10051000800368F39923B1F3552391F3951B550B91
:10052000BB27AA2762177307840738F09F5F5F4FC6
:10053000220F331F441FAA1FA9F335D00E2E3AF005
:10054000E0E832D091505040E695001CCAF72BD01D
:10055000FE2F29D0660F771F881FBB1F261737076E
:100560004807AB07B0E809F0BB0B802DBF01FF27A0
:1005700093585F4F3AF09E3F510578F00C94580322
:100580000C94A3035F3FE4F3983ED4F386957795EC
:100590006795B795F7959F5FC9F7880F911D969559
:1005A000879597F90895E1E0660F771F881FBB1FB5
:1005B000621773078407BA0720F0621B730B840B62
:1005C000BA0BEE1F88F7E09508950E94EC0268943C
:1005D000B1110C94A30308950E94880388F09F57DB
:1005E00098F0B92F9927B751B0F0E1F0660F771F57
:1005F000881F991F1AF0BA95C9F714C0B13091F04D
:100600000E94A203B1E008950C94A203672F782FF3
:100610008827B85F39F0B93FCCF386957795679511
:10062000B395D9F73EF490958095709561957F4F7D
:100630008F4F9F4F0895E89409C097FB3EF4909523
:100640008095709561957F4F8F4F9F4F9923A9F0AB
:10065000F92F96E9BB279395F6958795779567953A
:10066000B795F111F8CFFAF4BB0F11F460FF1BC07E
:100670006F5F7F4F8F4F9F4F16C0882311F096E911
:1006800011C0772321F09EE8872F762F05C06623BF
:1006900071F096E8862F70E060E02AF09A95660F78
:1006A000771F881FDAF7880F9695879597F9089531
:1006B00097F99F6780E870E060E008959FEF80EC15
:1006C000089500240A9416161706180609060895B8
:1006D00000240A9412161306140605060895092E1E
:1006E0000394000C11F4882352F0BB0F40F4BF2B8D
:1006F00011F460FF04C06F5F7F4F8F4F9F4F0895CD
:1007000057FD9058440F551F59F05F3F71F04795C2
:10071000880F97FB991F61F09F3F79F087950895A7
:10072000121613061406551FF2CF4695F1DF08C0C6
:10073000161617061806991FF1CF869571056105E3
:1007400008940895E894BB2766277727CB0197F98B
:1007500008950E94AE0308F48FEF0895990F0008E2
:10076000550FAA0BE0E8FEEF16161706E807F90783
:10077000C0F012161306E407F50798F0621B730B1E
:10078000840B950B39F40A2661F0232B242B252B9F
:1007900021F408950A2609F4A140A6958FEF811D42
:0807A000811D0895F894FFCFBC
:1007A8007F7F7F7F717F717F7F7F7F7F7E7F7A7B77
:1007B8007F7F7F7F7F7F7F7F7F717F7F717F7F7F5D
:1007C8000000606060787F7F7F7F7F60606060602E
:1007D80060707078783E3F1F1F0F0701000000000F
:1007E8000000000000000000000000000000000001
:1007F80000000000000000000000000000000000F1
:1008080000000000000000000000000000000000E0
:1008180000000000000000000000000000000000D0
:10082800FFFFF0F0F0F0F0F0F0F0F0F0F1F3F7FF88
:10083800FFFFF7F1F0F0F0F0F0F0F0F0F0F0F0FF7B
:10084800000000000000FFFFFFFFFF0000000000A5
:1008580000000000000083FFFFFFFFFF3C000101D4
:100868000303030303030101000000000101010168
:10087800030303030300000101030303030303014C
:10088800000000000000010101030303030300004E
:10089800000101030303030301010000000000003D
:1008A800E0FF03000103070F1E3E7FFFFFFF9F0FBE
:1008B8000F8FFFFFFF7F3E1E0F07030100013FFC64
:1008C800000000000000FFFFFFFFFF1C1C1C1C1C99
:1008D8001C1C1C3C78F8F8F8F1EFDFFF7FFFE1C142
:1008E8008181818181C1E1F9FFFF7F1F878080C0FD
:1008F800FFFFFFFFFF78F0E0C0C0C0C0C0E0FFFF0F
:10090800FFFF3F070000808080FFFFFFFFFF3C786C
:10091800F0E0C0C0C0C0E0F0FFFFFF7F1F00000094
:100928000080E0F8FCFFFF3F1F1E3CF8F0E0C080AD
:1009380000C0E0F0F83C1E1F3FFFFFFCF8E080001D
:10094800000000000000FFFFFFFFFF0000000000A4
:100958000000000000000000FEFFFFFFFFBF8180D5
:1009680080808080808080808080808080000000FF
:10097800FFFFFFFFFF000000000000000000FFFF76
:10098800FFFFFFFF0000000000FFFFFFFFFF000068
:100998000000000000000000FFFFFFFFFF00000054
:1009A80000000000000080C0E07030180C0C060643
:1009B800060C0C18183060E0C08000000000000031
:1009C8000000060E0E3EFEFEFEFEFE7E0E0E060029
:1009D80000000000000000000080E0F0F8FCFC7E51
:1009E8003E1E0E0E0E060E0E0E1C3878E6060E1E65
:1009F800FEFEFEFEFE0E0E0600000006060EFEFEC1
:100A0800FEFEFEFE0E0E06060EFEFEFEFEFE7E0E2E
:100A18000E06000000060E0EFEFEFEFEFE1E0E0670
:100A280000000000000000000000000000000000BE
:100A380000000000000001010000000000000000AC
:100A4800000000000000000000000001010100009B
:100A5800000000000101000000000000000000008C
:100A68000000000001010100000000000000010179
:100A7800000000000000000000000000000000006E
:100A8800000000000000000000000000000000005E
:100A9800000000000000000000000000000000004E
:100AA8000000FFFFCECECECE001F1F1F38381F1FFD
:100AB8001C383C1F0F00FFFF1C38381F1F07071F7B
:100AC8001F3B3B1F1F07071F1F3838FFFFFF000F83
:100AD8001F38381CFFFF000F1F1F3B3B1F1F070F4E
:100AE8001F1F3838FFFFFF0000000078FCFCCECF46
:100AF800C7C3181F1F03031F1F181E1F3F3B1B01DF
:100B080018FFFF1818000F1F3B3B3B1F0F001F1F4C
:100B18001C383C1F1F18383F1F07001F3F3B3B195D
:100B28000000F0F07070707000F0F0F00000F0F06D
:100B3800000000F0F000F0F0F07070F0E080C0E02D
:100B4800F07030707000C0E0F07070E0F0F000E01D
:100B5800F0707070F0F000C0E0F07030707000C09D
:100B6800E0F07070F0F0F00000000060707030701D
:100B7800F0E00000EEFEFCE00000707030F0F0E005
:100B880000E0F0707000E0F0703030706000F0F05D
:100B9800000000F0F00000F0F0F0607030B0F0E01D
:100BA8000300020001000000070006000500040021
:00000001FF
